:020000040800F2
:1000000078040020C10100085714000829130008D3
:1000100055140008CD020008491500080000000032
:100020000000000000000000000000005B14000859
:100030002504000800000000591400085D140008A1
:10004000DB010008DB010008DB010008DB01000820
:10005000DB010008DB010008DB010008DB01000810
:10006000DB010008DB010008DB010008DB01000800
:10007000DB010008DB010008DB010008DB010008F0
:10008000DB010008DB010008DB010008F5020008C5
:10009000D1020008DD020008E9020008DB010008C7
:1000A000DB010008DB010008DB010008DB010008C0
:1000B000DB010008DB010008DB010008DB010008B0
:1000C000DB010008DB010008DB010008DB010008A0
:1000D000DB010008DB010008DB010008DB01000890
:1000E000DB010008DB010008DB010008DB01000880
:1000F000DB010008DB010008DB010008DB01000870
:10010000DB010008DB010008DB010008DB0100085F
:10011000DB010008DB010008DB010008DB0100084F
:10012000DB010008DB010008DB010008DB0100083F
:10013000DB010008DB010008DB010008DB0100082F
:10014000DB010008DB010008DB010008DB0100081F
:10015000DB010008DB010008DB010008DB0100080F
:10016000DB010008DB010008DB010008DB010008FF
:10017000DB010008DB010008DB01000800000000D3
:10018000DB010008DB010008DB010008DB010008DF
:10019000DB010008DB010008DB010008DB010008CF
:1001A0000000000000000000DB010008DFF80CD0B8
:1001B00000F07AF80048004789150008780400200C
:1001C0000648804706480047FEE7FEE7FEE7FEE7F1
:1001D000FEE7FEE7FEE7FEE7FEE7FEE7F5140008B0
:1001E000AD0100082DE9F05F0546002092469B46D0
:1001F00088460646814640241BE02846414647463D
:10020000224600F041F853465A46C01A914110D395
:1002100011461846224600F028F82D1A67EB01080F
:100220004F4622460120002100F01FF817EB00097D
:100230004E41201EA4F10104DFDC484631462A4627
:100240004346BDE8F09FD2B201E000F8012B491E01
:10025000FBD270470022F6E710B513460A46044663
:100260001946FFF7F0FF204610BD202A04DB203A94
:1002700000FA02F1002070479140C2F1200320FAF9
:1002800003F3194390407047202A04DB203A21FAF7
:1002900002F00021704721FA02F3D040C2F120029F
:1002A0009140084319467047064C074D06E0E06848
:1002B00040F0010394E8070098471034AC42F6D3AD
:1002C000FFF778FFF415000814160008FEE7000099
:1002D000014800F0C5B9000034000020014800F0DA
:1002E000BFB9000034000020014800F0B9B9000097
:1002F00034000020014800F0B3B9000034000020B1
:1003000000B58BB000210122CDE9061242F2604314
:100310000591CDE900314FF6FF730293CDE903312A
:10032000CDE90821694600F099F8002801D000F0D5
:100330007BF80BB000BD10B50446FFF7E1FF204687
:1003400000F0ACFB08B100F06FF80121204600F08E
:1003500073F808B100F068F80221204600F06CF84C
:1003600008B100F061F80421204600F065F808B1FA
:1003700000F05AF80821204600F05EF808B100F0BD
:1003800053F81021204600F057F808B100F04CF85F
:100390002021204600F050F808B100F045F8402137
:1003A000204600F049F808B100F03EF84FF48031E3
:1003B000204600F041F808B100F036F84FF4003163
:1003C000204600F039F808B100F02EF84FF48071A3
:1003D000204600F031F808B100F026F84FF4007123
:1003E000204600F029F808B100F01EF84FF48061B3
:1003F000204600F021F808B100F016F84FF4006133
:10040000204600F019F808B100F00EF84FF4004152
:10041000204600F011F8002803D0BDE8104000F09D
:1004200003B810BD7047000000224FF4006101487E
:1004300000F068BC0010024090F82020012A07D08C
:10044000022A05D0416A41F48021416201207047AF
:10045000006842690A4342610020704710B590F875
:100460002020012A07D0022A05D0416A41F48021C8
:100470004162012010BD3B48D0F8002242F0010249
:10048000C0F80022D0F8002222F47C52C0F80022EA
:10049000D0F800224B6A42EA0322C0F800220A7D0B
:1004A00002F01F0301229A40D0F81C329343C0F897
:1004B0001C32CB69B3B9D0F80C329343C0F80C327C
:1004C0008C894B6864F31F434C6900EBC404C4F887
:1004D00040320C890B6864F31F434C6900EBC40481
:1004E000C4F84432CB69012B16D1D0F80C32134337
:1004F000C0F80C320C884B6864F31F434C6900EB66
:10050000C404C4F840320C89CB6864F31F434C69BF
:1005100000EBC404C4F844328B69002BD0F80432D9
:100520000ED01343C0F804320B69002BD0F81432FC
:1005300008D01343C0F81432096A012904D008E036
:100540009343EFE79343F5E7D0F81C121143C0F84B
:100550001C12D0F8001221F00101C0F80012002096
:1005600010BD000000640040014800F003B8000026
:1005700034000020406A704730B590F82040012CCC
:1005800005D0022C03D0416A41F480215DE004686B
:10059000002955D02469A40754D04FF4D8740568B5
:1005A00004EB01142D5915F00405956005682D59CB
:1005B0004ED0ED08556005682C59C4F34004D46052
:1005C0004FF4DA74056804EB01142D5905F00F059A
:1005D000156105682D59C5F30725956105682C59E6
:1005E000240C54614FF4DC72046802EB0112A4582D
:1005F0001C700468A458240A5C700468A458240C75
:100600009C700468A258120EDA704FF4DE7204680F
:1006100002EB0112A4581C710468A458240A5C71EE
:100620000468A458240C9C710468A258120EDA7154
:10063000006881B1016941F020010161002030BDF5
:10064000E468A8E7416A41F400114162012030BD2D
:100650006D0D1560AFE7C16841F02001C160EDE7A5
:100660002DE9F05F0546006800244669D0F8049043
:100670008768D0F80CB0D0F810A0D0F81880F10737
:1006800048D0F90714D001218160B80703D5284666
:1006900000F032FA0CE0780702D54FF4006407E06E
:1006A000380702D54FF4805402E0284600F022FAC1
:1006B000F80516D529684FF480708860B80503D511
:1006C000284600F022FA0CE0780502D544F40054E4
:1006D00007E0380502D544F4804402E0284600F0E3
:1006E00013FAF80316D529684FF480308860B803F0
:1006F00003D5284600F00BFA0CE0780302D544F449
:10070000004407E0380302D544F4803402E0284670
:1007100000F0FCF9300707D55FEACB6004D5296803
:10072000102044F40074C86070074FF0080707D524
:100730005FEA0B7004D52868C760284600F070F99E
:10074000B00706D52868C068800702D0284600F0A8
:1007500069F9700607D55FEACA6004D529681020D8
:1007600044F480640861B00607D55FEA0A7004D5D6
:1007700028680761284600F08DF9F00606D528683C
:100780000069800702D0284600F085F9B00308D53B
:100790005FEAC96005D5296810204860284600F046
:1007A0007BF9F00307D55FEA097004D52868476034
:1007B000284600F0ADF9300446D55FEA497040D5CF
:1007C000F00504D55FEAC87001D044F00104B0051B
:1007D00004D55FEA887001D544F00204700504D5A1
:1007E0005FEA487001D544F00404300529D518F0BB
:1007F000700F26D008F07000402815D006DC1028B5
:1008000009D020280AD0302816D10AE050280ED06E
:10081000602811D10EE044F008040DE044F010040B
:100820000AE044F0200407E044F0400404E044F00F
:10083000800401E044F480742868816921F070012B
:100840008161296804204860002C05D0686A204333
:1008500068622846FFF788FEBDE8F09F70B5040087
:1008600003D094F8200010B104E0012070BD2046B0
:1008700000F082F82068016821F00201016000F0B8
:1008800047FA0546052604E000F042FA401B0A2814
:1008900011D8206840688007F6D42068016841F0CC
:1008A0000101016000F034FA05460BE000F030FA77
:1008B000401B0A2806D9606A40F40030606284F860
:1008C0002060D2E720684068C007EFD0207E012872
:1008D000206801683DD021F080010160607E012820
:1008E0002068016838D021F040010160A07E012815
:1008F0002068016833D021F020010160E07E0128EA
:10090000206801682ED041F010010160207F01288D
:100910002068016829D021F008010160607F01286A
:100920002068016824D021F004010160D4E90201AB
:100930000843D4E90412114308436168491E08437F
:100940002168C86100206062012084F82000002036
:1009500070BD41F08001C0E741F04001C5E741F0C2
:100960002001CAE721F01001CFE741F00801D4E7E8
:1009700041F00401D9E7000010B586B00446142107
:100980006846FFF767FC2349206888423FD1224828
:100990000021026842F000720260006800F00070FE
:1009A00005901D481038026842F008020260006895
:1009B000022200F0080005900320CDE90210CDE9E5
:1009C0000002092004906946144800F0B5F800229E
:1009D0000421132000F00AFA132000F0F9F9002294
:1009E0000221142000F002FA142000F0F1F9002294
:1009F0000321152000F0FAF9152000F0E9F9002292
:100A00000121162000F0F2F9162000F0E1F906B0FD
:100A100010BD00000064004040380240000C02405D
:100A2000704700002DE9FC471649884223D16B46E8
:100A3000154A00211348FFF79FFDE0B900244FF04D
:100A40000208DFF848906E46114F0F4D10E0305D00
:100A5000395D884208FA04F081B201D1002200E039
:100A60000122484600F04EF9642000F053F8641C5F
:100A70002869A042EBD806490020091F0860BDE89C
:100A8000FC870000340000205C00002000180240B9
:100A900004000020704770477047000070B504469E
:100AA00090F82000012804D0606A40F400206062C1
:100AB00018E0022084F820002068016821F001017C
:100AC000016000F025F905460EE000BF00F020F9B6
:100AD000401B0A2808D9606A40F400306062052093
:100AE00084F82000012070BD20684068C007EDD167
:100AF000606270BD7047000000224FF480410148E1
:100B000000F000B90014024070477047704770470A
:100B10007047000070B5044600F0FAF80546601C06
:100B200002D004480078044400F0F2F8401BA042D0
:100B3000FAD370BD0C0000202DE9F84FDFF890B11A
:100B400000224FF001084FF0030A4FF00F090BF19C
:100B5000040E00BF0B6808FA02F42340A3426ED1D2
:100B60004D68022D01D0122D0ED1D50800EB850C59
:100B7000DCF820505607F70E09FA07F6B5430E6960
:100B8000BE402E43CCF82060066855000F790AFA63
:100B900005FC07F0030726EA0C06AF403743076061
:100BA0004E68012E05D0022E03D0112E01D0122E38
:100BB0000ED18768CE6827EA0C07AE403E438660B8
:100BC0004668A6430C79C4F300149440344344604F
:100BD000C4688E6824EA0C04AE402643C6604C68A4
:100BE000E4006FD53B4C256845F4804525602468BA
:100BF00022F0030504F480440094374C2E19D6F8F3
:100C0000084895072F0F09FA07F5AC43334DA84262
:100C100001D100252EE0324DA84201D1012529E065
:100C2000304DA84201D1022524E02F4DA84201D128
:100C300003251FE02D4DA84202D104251AE041E012
:100C40002B4DA84201D1052514E02A4DA84201D11F
:100C500006250FE0284DA84201D107250AE0274DBF
:100C6000A84201D1082505E0254DA84201D109255A
:100C700000E00A25BD402543C6F80858DBF80040CF
:100C80005D464E689C43F60300D51C432C60DEF89D
:100C9000004075464E689C43B60300D51C432C604B
:100CA0000B4D08352C684E689C43F60200D51C435A
:100CB0002C60074D0C352C684E689C43B60200D55D
:100CC0001C432C60521C102AFFF444AFBDE8F88F7F
:100CD000003C014044380240003001400000024026
:100CE0000004024000080240000C024000100240D4
:100CF0000014024000180240001C02400020024084
:100D0000002402400AB1816170470904FBE700003A
:100D100001488068704700000C000020024881688C
:100D200002781144816070470C0000200B4810B518
:100D3000016841F400710160016841F48061016063
:100D4000016841F480710160032000F06FF8002019
:100D500000F006F800F024F8002010BD003C02402E
:100D600070B50D4D04464FF47A712878B1FBF0F060
:100D70000A490968B1FBF0F000F0C2FA48B9102C3A
:100D800007D200222146501E00F030F800206C608F
:100D900070BD012070BD00000C0000201800002074
:100DA0000A4808B5016841F480410160006800F418
:100DB000804000900548001F016841F080510160AB
:100DC000006800F08050009008BD000044380240E8
:100DD000002809DB00F01F0201219140400980003A
:100DE00000F1E020C0F8001170470000F0B40E4B95
:100DF0001B680C46C3F30223C3F10705042D00D979
:100E00000425191D072901D2002300E0DB1E01265D
:100E100006FA05F1491E214099409E40761E164073
:100E20003143F0BC00F091BB0CED00E0064900F04E
:100E3000070208684FF6FF03184040EA0220034A01
:100E400010430860704700000CED00E00000FA0558
:100E50002DE9F0470E46050065D0DFF81481D8F87B
:100E60000000F7B200F00F00B04207D288F800701F
:100E7000D8F8000000F00F00B04254D128683D4C73
:100E8000810712D5400703D5206840F4E050206068
:100E90002878000703D5206840F46040206020686F
:100EA000A96820F0F000084320602878C0072DD002
:100EB000304968680839012812D0022813D0032865
:100EC00011D00968890700292DDA216821F0030172
:100ED00001432160FFF71CFF814641F2883A0EE092
:100EE00009688903EFE709688901ECE7FFF710FF5C
:100EF000A0EB0901514502D90320BDE8F087206825
:100F0000696800F00C00B0EB810FEFD1D8F8001049
:100F1000404601F00F01B14207D90770006800F0A8
:100F20000F00B04201D00120E7E72878400705D53F
:100F30002068E96820F4E050084320602878000722
:100F400006D52068296920F4604040EAC10020608D
:100F500000F016F82168084AC1F30311515CC8403B
:100F6000064908600020FFF7FBFE0020C5E70000EF
:100F7000003C024008380240E41500081800002038
:100F8000154810B5006810F00C02144813D014492D
:100F9000042A0FD0082A0ED10F4C241F2268236880
:100FA00002F03F025B0207D52068C0F38810A0FB67
:100FB000010106E0084610BD2168C1F38811A1FBBC
:100FC00000010023FFF70EF92168C1F30141491C1C
:100FD0004900B0FBF1F010BD083802400024F400D5
:100FE000001BB7002DE9F84F050076D02878DFF810
:100FF000F8B2BE4CC00749D0DBF800105846C1F328
:101000008101012908D00068C0F3810002280AD1BB
:10101000201D0068400206D52068800336D5686828
:101020000028E2D032E06868B0F5803F10D0B0F51B
:10103000A02F206810D020F480302060206820F499
:10104000802020606868A0B1FFF762FE06460CE0D1
:10105000206840F48030F4E740F480202060F7E717
:10106000FFF756FE801B642873D820688003F7D5ED
:101070000CE0FFF74DFE064605E000BFFFF748FE17
:10108000801B6428F0D820688003F7D42878DFF824
:10109000608280074FF000093ED5DBF8001058460B
:1010A00011F00C0F09D00068C0F3810002280BD1A9
:1010B0008D48001F0068400206D42068800715D5BF
:1010C000E868012809D111E0E868B8B10120C8F842
:1010D0000000FFF71DFE064605E002E1FFF718FEDF
:1010E000801B0228C0D820688007F7D520682969AE
:1010F00020F0F80040EAC10020600DE0C8F8009040
:10110000FFF706FE064604E0FFF702FE801B0228FA
:101110001FD820688007F7D42878000722D5724EA0
:10112000744869696C3671B101210160FFF7F0FD07
:10113000074604E0FFF7ECFDC01B022809D8306821
:101140008007F7D50EE0C0F80090FFF7E1FD0746F5
:1011500005E083E0FFF7DCFDC01B02287ED8306885
:101160008007F7D42878400768D5DFF87CA10027EE
:101170000AF1380ADAF80000C0000BD4DAF80010DF
:1011800041F08051CAF80010DAF80000012700F0A1
:1011900080500090584E3068C00510D4306840F43C
:1011A00080703060FFF7B4FD009005E0FFF7B0FD00
:1011B0000099401A022851D83068C005F6D54A4E29
:1011C000A868683601280FD00528306810D020F0B4
:1011D00001003060306820F004003060A868B8B1C9
:1011E000FFF796FD00900FE0306840F00100F4E753
:1011F00040F004003060F7E7FFF78AFD0099411ADC
:1012000041F28830814264D830688007F4D50EE01E
:10121000FFF77EFD009007E0FFF77AFD0099411A85
:1012200041F28830814254D830688007F4D42FB11D
:10123000DAF8001021F08051CAF80010A869C0B394
:10124000DBF80010C1F3810102294AD00228484688
:1012500007D0C8F86000FFF75BFD00E039E0054605
:101260003AE04746C8F86000FFF752FD064604E042
:10127000FFF74EFD801B02282BD820688001F7D491
:10128000D5E907010843A96A1C4A490802EB014154
:101290006A6A41EA8211084395F82C1040EA01611C
:1012A0001148001F016001203866FFF731FD054637
:1012B00005E014E0FFF72CFD401B022809D8206848
:1012C0008001F7D50BE000BFFFF722FD401B02288D
:1012D00002D90320BDE8F88F20688001F4D40020F3
:1012E000F8E70120F6E70000083802400038024025
:1012F00000004742800E4742007000400000FFFFA0
:1013000010B5401EB0F1807F01D3012010BD4FF019
:10131000E02460610F21601700F017F90020A06140
:1013200007202061002010BDFEE70000104810B526
:101330000E4901602421416000214FF4E0228160C8
:10134000C0E903124FF4A002426101764176817632
:101350000122C27601774177FFF780FA002803D097
:10136000BDE81040FFF760B810BD00000064004009
:10137000340000202DE9F04786B014216846FEF7BE
:1013800069FF30480024016841F080010160016874
:1013900001F080010591016841F0200101600168C0
:1013A00001F020010591016841F0400101600168F0
:1013B00001F040010591016841F0100101600168F0
:1013C00001F010010591016841F008010160006819
:1013D000DFF8748000F008004FF48045059000228B
:1013E00029464046FFF78EFCDFF860904FF4FF7609
:1013F000012231464846FFF785FC0122DFF850A064
:10140000D70239465046FFF77DFC00950125CDE90E
:101410000154694640460394FFF78EFB0096CDE9E0
:101420000154694648460394FFF786FB0097CDE9CF
:101430000154694650460394FFF77EFB06B0BDE8B1
:10144000F0870000303802400014024000180240CB
:1014500000100240FEE7704770477047FFF75EBC20
:1014600030B593B030216846FEF7F4FE14210CA885
:10147000FEF7F0FE1D480025016841F08051016033
:10148000006800F0805011901948016821F4404133
:1014900041F4804101600068022400F44040119052
:1014A00001200090000401908001CDE906400C204D
:1014B00008909020CDE9090404200B906846FFF7BE
:1014C00091FD08B1FEF7B0FF0CA90F2081E83100B3
:1014D0004FF48050CDE90F0502210CA8FFF7B8FCAE
:1014E000002801D0FEF7A0FF13B030BD4038024005
:1014F000007000401048016841F4700101600F481D
:10150000016841F0010101600C4A002108321160BC
:1015100002680B4B1A400260031D0A4A1A600268F7
:1015200022F48022026005480C300160024958060E
:10153000803908607047000088ED00E00038024004
:10154000FFFFF6FE10300024FEE70907090E002811
:1015500004DB00F1E02080F80014704700F00F0079
:1015600000F1E02080F8141D704702E008C8121F47
:1015700008C1002AFAD170477047002001E001C17C
:10158000121F002AFBD17047FFF7D0FBFFF768FF5F
:10159000FFF7F0FEFFF7CAFE0E48FEF7CCFE0F4E37
:1015A0000D4CDFF83C804FF4FF75F7140120FFF776
:1015B000B1FA2068401C2060FA28F7D101222946A0
:1015C0003046FFF79FFB012239464046FFF79AFB62
:1015D000ECE700003400002000000020001802406A
:1015E000001002400000000000000000010203049F
:1015F0000607080914160008000000201C0000005F
:101600006A150008301600081C0000205C04000069
:101610007A1500080000000043414E000000000061
:101620000100000010000000000000000024F40091
:04000005080001AD41
:00000001FF
