:020000040800F2
:1000000050040020C1010008FB0C0008190C000876
:10001000F90C0008CD020008A50E00080000000041
:10002000000000000000000000000000FF0C0008BD
:10003000CF02000800000000FD0C0008010D0008C0
:10004000DB010008DB010008DB010008DB01000820
:10005000DB010008DB010008DB010008DB01000810
:10006000D1020008DB010008DB010008DB01000809
:10007000DB010008DB010008DB010008DB010008F0
:10008000DB010008DB010008DB010008DB010008E0
:10009000DB010008DB010008DB010008DB010008D0
:1000A000DB010008DB010008DB010008DB010008C0
:1000B000DB010008DB010008DB010008DB010008B0
:1000C000DB010008DB010008DB010008DB010008A0
:1000D000DB010008DB010008DB010008DB01000890
:1000E000DB010008DB010008DB010008DB01000880
:1000F000DB010008DB010008DB010008DB01000870
:10010000DB010008DB010008DB010008DB0100085F
:10011000DB010008DB010008DB010008DB0100084F
:10012000DB010008DB010008DB010008DB0100083F
:10013000DB010008DB010008DB010008DB0100082F
:10014000DB010008DB010008DB010008DB0100081F
:10015000DB010008DB010008DB010008DB0100080F
:10016000DB010008DB010008DB010008DB010008FF
:10017000DB010008DB010008DB01000800000000D3
:10018000DB010008DB010008DB010008DB010008DF
:10019000DB010008DB010008DB010008DB010008CF
:1001A0000000000000000000DB010008DFF80CD0B8
:1001B00000F07AF800480047E50E000850040020DF
:1001C0000648804706480047FEE7FEE7FEE7FEE7F1
:1001D000FEE7FEE7FEE7FEE7FEE7FEE7890D000823
:1001E000AD0100082DE9F05F0546002092469B46D0
:1001F00088460646814640241BE02846414647463D
:10020000224600F041F853465A46C01A914110D395
:1002100011461846224600F028F82D1A67EB01080F
:100220004F4622460120002100F01FF817EB00097D
:100230004E41201EA4F10104DFDC484631462A4627
:100240004346BDE8F09FD2B201E000F8012B491E01
:10025000FBD270470022F6E710B513460A46044663
:100260001946FFF7F0FF204610BD202A04DB203A94
:1002700000FA02F1002070479140C2F1200320FAF9
:1002800003F3194390407047202A04DB203A21FAF7
:1002900002F00021704721FA02F3D040C2F120029F
:1002A0009140084319467047064C074D06E0E06848
:1002B00040F0010394E8070098471034AC42F6D3AD
:1002C000FFF778FF0810000828100008FEE77047C5
:1002D000042000F035B8704770B5044600F02EF9E0
:1002E0000546601C02D004480078044400F026F95A
:1002F000401BA042FAD370BD000000202DE9F04160
:10030000042818D10D4E00244FF4FF754FF4FA77EE
:1003100000222946304600F00CF93846FFF7DCFF92
:100320002946304600F0FEF83846FFF7D5FF641C3A
:10033000E4B2032CECD3BDE8F081000000180240C9
:10034000044910B50A68024202D00860FFF7D6FFE0
:1003500010BD0000143C01402DE9F84FDFF890B1CA
:1003600000224FF001084FF0030A4FF00F090BF184
:10037000040E00BF0B6808FA02F42340A3426ED1BA
:100380004D68022D01D0122D0ED1D50800EB850C41
:10039000DCF820505607F70E09FA07F6B5430E6948
:1003A000BE402E43CCF82060066855000F790AFA4B
:1003B00005FC07F0030726EA0C06AF403743076049
:1003C0004E68012E05D0022E03D0112E01D0122E20
:1003D0000ED18768CE6827EA0C07AE403E438660A0
:1003E0004668A6430C79C4F3001494403443446037
:1003F000C4688E6824EA0C04AE402643C6604C688C
:10040000E4006FD53B4C256845F4804525602468A1
:1004100022F0030504F480440094374C2E19D6F8DA
:10042000084895072F0F09FA07F5AC43334DA8424A
:1004300001D100252EE0324DA84201D1012529E04D
:10044000304DA84201D1022524E02F4DA84201D110
:1004500003251FE02D4DA84202D104251AE041E0FA
:100460002B4DA84201D1052514E02A4DA84201D107
:1004700006250FE0284DA84201D107250AE0274DA7
:10048000A84201D1082505E0254DA84201D1092542
:1004900000E00A25BD402543C6F80858DBF80040B7
:1004A0005D464E689C43F60300D51C432C60DEF885
:1004B000004075464E689C43B60300D51C432C6033
:1004C0000B4D08352C684E689C43F60200D51C4342
:1004D0002C60074D0C352C684E689C43B60200D545
:1004E0001C432C60521C102AFFF444AFBDE8F88F67
:1004F000003C01404438024000300140000002400E
:100500000004024000080240000C024000100240BB
:100510000014024000180240001C0240002002406B
:1005200000240240426931EA020200D109048161DB
:1005300070470AB1816170470904FBE70148806890
:1005400070470000000000200248816802781144D2
:1005500081607047000000200B4810B5016841F42D
:1005600000710160016841F480610160016841F43B
:1005700080710160032000F06FF8002000F006F8A1
:1005800000F024F8002010BD003C024070B50D4D75
:1005900004464FF47A712878B1FBF0F00A490968F3
:1005A000B1FBF0F000F0C2FA48B9102C07D20022DB
:1005B0002146501E00F030F800206C6070BD012014
:1005C00070BD0000000000200C0000200A4808B5A3
:1005D000016841F480410160006800F480400090AF
:1005E0000548001F016841F080510160006800F07B
:1005F0008050009008BD000044380240002809DB0C
:1006000000F01F02012191404009800000F1E0202C
:10061000C0F8001170470000F0B40E4B1B680C4688
:10062000C3F30223C3F10705042D00D90425191DC6
:10063000072901D2002300E0DB1E012606FA05F19E
:10064000491E214099409E40761E16403143F0BC21
:1006500000F029BC0CED00E0064900F00702086834
:100660004FF6FF03184040EA0220034A1043086097
:10067000704700000CED00E00000FA052DE9F0479E
:100680000E46050065D0DFF81481D8F80000F7B2F7
:1006900000F00F00B04207D288F80070D8F80000D0
:1006A00000F00F00B04254D128683D4C810712D5AC
:1006B000400703D5206840F4E05020602878000708
:1006C00003D5206840F4604020602068A96820F0CD
:1006D000F000084320602878C0072DD030496868B2
:1006E0000839012812D0022813D0032811D0096834
:1006F000890700292DDA216821F0030101432160D7
:10070000FFF71CFF814641F2883A0EE00968890331
:10071000EFE709688901ECE7FFF710FFA0EB09019B
:10072000514502D90320BDE8F0872068696800F0D0
:100730000C00B0EB810FEFD1D8F80010404601F06B
:100740000F01B14207D90770006800F00F00B042F6
:1007500001D00120E7E72878400705D52068E9683F
:1007600020F4E050084320602878000706D5206870
:10077000296920F4604040EAC100206000F016F8CA
:100780002168084AC1F30311515CC840064908605A
:100790000020FFF7FBFE0020C5E70000003C024000
:1007A00008380240F80F00080C000020154810B56A
:1007B000006810F00C02144813D01449042A0FD01A
:1007C000082A0ED10F4C241F2268236802F03F0232
:1007D0005B0207D52068C0F38810A0FB010106E08A
:1007E000084610BD2168C1F38811A1FB0001002358
:1007F000FFF7F8FC2168C1F30141491C4900B0FB37
:10080000F1F010BD083802400024F400001BB700CE
:100810002DE9F84F050076D02878DFF8F8B2BE4C05
:10082000C00749D0DBF800105846C1F38101012907
:1008300008D00068C0F3810002280AD1201D00689A
:10084000400206D52068800336D568680028E2D0CB
:1008500032E06868B0F5803F10D0B0F5A02F206876
:1008600010D020F480302060206820F480202060A8
:100870006868A0B1FFF762FE06460CE0206840F40D
:100880008030F4E740F480202060F7E7FFF756FE61
:10089000801B642873D820688003F7D50CE0FFF72D
:1008A0004DFE064605E000BFFFF748FE801B6428AA
:1008B000F0D820688003F7D42878DFF860828007BA
:1008C0004FF000093ED5DBF80010584611F00C0F30
:1008D00009D00068C0F3810002280BD18D48001FA9
:1008E0000068400206D42068800715D5E868012812
:1008F00009D111E0E868B8B10120C8F80000FFF79D
:100900001DFE064605E002E1FFF718FE801B0228E7
:10091000C0D820688007F7D52068296920F0F80042
:1009200040EAC10020600DE0C8F80090FFF706FE25
:10093000064604E0FFF702FE801B02281FD820684D
:100940008007F7D42878000722D5724E7448696969
:100950006C3671B101210160FFF7F0FD074604E03C
:10096000FFF7ECFDC01B022809D830688007F7D5D7
:100970000EE0C0F80090FFF7E1FD074605E083E0D8
:10098000FFF7DCFDC01B02287ED830688007F7D453
:100990002878400768D5DFF87CA100270AF1380ADB
:1009A000DAF80000C0000BD4DAF8001041F08051F2
:1009B000CAF80010DAF80000012700F0805000901B
:1009C000584E3068C00510D4306840F480703060F4
:1009D000FFF7B4FD009005E0FFF7B0FD0099401A65
:1009E000022851D83068C005F6D54A4EA868683646
:1009F00001280FD00528306810D020F001003060A9
:100A0000306820F004003060A868B8B1FFF796FDA8
:100A100000900FE0306840F00100F4E740F004007F
:100A20003060F7E7FFF78AFD0099411A41F28830FC
:100A3000814264D830688007F4D50EE0FFF77EFD70
:100A4000009007E0FFF77AFD0099411A41F28830E3
:100A5000814254D830688007F4D42FB1DAF80010FE
:100A600021F08051CAF80010A869C0B3DBF800106B
:100A7000C1F3810102294AD00228484607D0C8F8AC
:100A80006000FFF75BFD00E039E005463AE04746CD
:100A9000C8F86000FFF752FD064604E0FFF74EFD80
:100AA000801B02282BD820688001F7D4D5E90701E4
:100AB0000843A96A1C4A490802EB01416A6A41EAF3
:100AC0008211084395F82C1040EA01611148001F7B
:100AD000016001203866FFF731FD054605E014E0AE
:100AE000FFF72CFD401B022809D820688001F7D5AC
:100AF0000BE000BFFFF722FD401B022802D90320B4
:100B0000BDE8F88F20688001F4D40020F8E70120C8
:100B1000F6E7000008380240003802400000474273
:100B2000800E4742007000400000FFFF10B5401EDD
:100B3000B0F1807F01D3012010BD4FF0E02460614F
:100B40000F21601700F0AFF90020A061072020619D
:100B5000002010BD70B590F83C20012A19D0012466
:100B600000F83C4F0222427050F83C3C5A689D68A5
:100B700022F070060A684968324325F0800529434F
:100B80005A6050F83C2C9160447000210170084676
:100B900070BD022070BD10B5040003D094F83D0074
:100BA00010B107E0012010BD002084F83C00204671
:100BB00000F00CF8022084F83D00211D206800F0B0
:100BC0000DF9012084F83D00002010BD08B5006833
:100BD0000649884208D10648016841F020010160B9
:100BE000006800F02000009008BD000000140040E4
:100BF00040380240022180F83D1001688A6802F006
:100C00000702062A03D00A6842F001020A600121A5
:100C100080F83D1000207047FEE7000070B586B0F8
:100C200014216846FFF716FB1E480024016841F0B6
:100C300080010160016801F080010591016841F0C7
:100C400002010160016801F002010591016841F0B3
:100C5000400101600068144E00F040004FF4FF7541
:100C60000590002229463046FFF763FC04200090DF
:100C70000E48CDE9010469460D48FFF76DFB0120E0
:100C80000095CDE90104694630460394FFF764FB03
:100C9000002201210820FFF7BFFC0820FFF7AEFC6F
:100CA00006B070BD3038024000180240000011103C
:100CB000000402401CB500240E4800940C49019425
:100CC00001600121C0E901144FF6FF718461C16028
:100CD000FFF761FF08B1FFF7FEFA00946946054887
:100CE0000194FFF737FF002801D0FFF7F4FA1CBD8D
:100CF0000014004010000020FEE770477047704766
:100D0000FFF722BC30B593B030216846FFF7A2FA56
:100D100014210CA8FFF79EFA19480025016841F03C
:100D200080510160006800F0805011901548016802
:100D300021F4404141F4804101600068022400F444
:100D40004040119001200090000401908001CDE905
:100D500006400C200890A020CDE9090404200B9047
:100D60006846FFF755FD0CA90F2081E83100E0022D
:100D70000F90109002210CA8FFF780FC13B030BD3B
:100D800040380240007000401048016841F4700192
:100D900001600F48016841F0010101600C4A002127
:100DA0000832116002680B4B1A400260031D0A4AA8
:100DB0001A60026822F48022026005480C3001604B
:100DC00002495806803908607047000088ED00E04D
:100DD00000380240FFFFF6FE10300024F0B5026834
:100DE000254C264D264E274F274B4FF0804CA042D6
:100DF00009D0604507D0A84205D0B04203D0B84220
:100E000001D0984204D122F0700E4A6842EA0E02E4
:100E1000A0421BD0604519D0A84217D0B04215D0CF
:100E2000B84213D0984211D0184DA8420ED0184D98
:100E3000A8420BD0174DA84208D0174DA84205D0A4
:100E4000164DA84202D0164DA84203D122F4407597
:100E5000CA682A434D6922F080022A4302608A68E8
:100E6000C2620A688262A04201D0984201D1096937
:100E7000016301214161F0BD000001400004004018
:100E800000080040000C0040000401400040014008
:100E9000004401400048014000180040001C004090
:100EA00000200040FEE70907090E002804DB00F1DE
:100EB000E02080F80014704700F00F0000F1E020FF
:100EC00080F8141D704702E008C8121F08C1002AEC
:100ED000FAD170477047002001E001C1121F002ABB
:100EE000FBD17047FFF738FBFFF70CFFFFF796FECB
:100EF000FFF7E0FE3E48FFF77DFE3E4DAC150022B9
:100F000002212846FFF715FB3220FFF7E5F9002202
:100F100004212846FFF70DFB3220FFF7DDF9002200
:100F200008212846FFF705FB3220FFF7D5F90022FC
:100F300010212846FFF7FDFA3220FFF7CDF90022F5
:100F400020212846FFF7F5FA3220FFF7C5F90022E5
:100F500040212846FFF7EDFA3220FFF7BDF90022C5
:100F600080212846FFF7E5FA3220FFF7B5F9002285
:100F700021462846FFF7DDFA3220FFF7ADF90221BE
:100F80002846FFF7CFFA3220FFF7A6F904212846BA
:100F9000FFF7C8FA3220FFF79FF908212846FFF72C
:100FA000C1FA3220FFF798F910212846FFF7BAFA64
:100FB0003220FFF791F920212846FFF7B3FA3220BB
:100FC000FFF78AF940212846FFF7ACFA3220FFF7F5
:100FD00083F980212846FFF7A5FA3220FFF77CF934
:100FE00021462846FFF79EFA3220FFF775F986E77B
:100FF0001000002000180240000000000000000067
:101000000102030406070809281000080000002058
:1010100010000000C60E0008381000081000002064
:1010200040040000D60E000801000000100000007F
:08103000000000000024F400A0
:04000005080001AD41
:00000001FF
