:020000040800F2
:10000000A0060020C1010008AF100008BD0F0008C5
:10001000AD100008070300089B1600080000000050
:10002000000000000000000000000000B310000805
:100030000903000800000000B1100008B510000816
:10004000DB010008DB010008DB010008DB01000820
:10005000DB010008DB010008DB010008DB01000810
:10006000DB010008DB010008DB010008DB01000800
:10007000DB010008DB010008DB010008DB010008F0
:10008000DB010008DB010008DB010008DB010008E0
:10009000DB010008DB010008DB010008DB010008D0
:1000A000DB010008DB010008DB010008DB010008C0
:1000B000DB010008DB010008DB010008DB010008B0
:1000C000DB010008DB010008DB010008DB010008A0
:1000D000DB010008DB010008DB010008DB01000890
:1000E000DB010008DB010008DB010008DB01000880
:1000F000DB010008DB010008DB010008DB01000870
:10010000DB010008DB010008DB010008DB0100085F
:1001100059120008DB010008DB010008DB010008C0
:10012000DB010008DB010008DB010008DB0100083F
:10013000DB010008DB010008DB010008DB0100082F
:10014000DB010008DB010008DB010008DB0100081F
:10015000DB010008DB010008DB010008DB0100080F
:10016000DB010008DB010008DB010008DB010008FF
:10017000DB010008DB010008DB01000800000000D3
:10018000DB010008DB010008DB010008DB010008DF
:10019000DB010008DB010008DB010008DB010008CF
:1001A0000000000000000000DB010008DFF80CD0B8
:1001B00000F07AF800480047DD160008A00600208D
:1001C0000648804706480047FEE7FEE7FEE7FEE7F1
:1001D000FEE7FEE7FEE7FEE7FEE7FEE73D1100086B
:1001E000AD0100082DE9F05F0546002092469B46D0
:1001F00088460646814640241BE02846414647463D
:10020000224600F041F853465A46C01A914110D395
:1002100011461846224600F028F82D1A67EB01080F
:100220004F4622460120002100F01FF817EB00097D
:100230004E41201EA4F10104DFDC484631462A4627
:100240004346BDE8F09FD2B201E000F8012B491E01
:10025000FBD270470022F6E710B513460A46044663
:100260001946FFF7F0FF204610BD202A04DB203A94
:1002700000FA02F1002070479140C2F1200320FAF9
:1002800003F3194390407047202A04DB203A21FAF7
:1002900002F00021704721FA02F3D040C2F120029F
:1002A0009140084319467047064C074D06E0E06848
:1002B00040F0010394E8070098471034AC42F6D3AD
:1002C000FFF778FF6C1700088C17000830B58C1802
:1002D00010F8012B12F00F0301D110F8013B1209A5
:1002E00006D110F8012B03E010F8015B01F8015B67
:1002F0005B1EF9D101E001F8013B521EFBD1A14286
:10030000E6D3002030BDFEE77047704790F8351007
:10031000022903D08021416501207047052180F822
:1003200035100068016821F001010160002070476C
:1003300070B5044600F0FAF80546601C02D0044887
:100340000078044400F0F2F8401BA042FAD370BDDC
:100350000C0200202DE9F84FDFF890B100224FF099
:1003600001084FF0030A4FF00F090BF1040E00BF14
:100370000B6808FA02F42340A3426ED14D68022DA7
:1003800001D0122D0ED1D50800EB850CDCF82050E1
:100390005607F70E09FA07F6B5430E69BE402E431D
:1003A000CCF82060066855000F790AFA05FC07F0C2
:1003B000030726EA0C06AF40374307604E68012E5C
:1003C00005D0022E03D0112E01D0122E0ED1876837
:1003D000CE6827EA0C07AE403E4386604668A643D7
:1003E0000C79C4F30014944034434460C4688E68AC
:1003F00024EA0C04AE402643C6604C68E4006FD586
:100400003B4C256845F480452560246822F00305AF
:1004100004F480440094374C2E19D6F80848950708
:100420002F0F09FA07F5AC43334DA84201D100253F
:100430002EE0324DA84201D1012529E0304DA842DD
:1004400001D1022524E02F4DA84201D103251FE050
:100450002D4DA84202D104251AE041E02B4DA842BF
:1004600001D1052514E02A4DA84201D106250FE04F
:10047000284DA84201D107250AE0274DA84201D105
:10048000082505E0254DA84201D1092500E00A25EF
:10049000BD402543C6F80858DBF800405D464E686D
:1004A0009C43F60300D51C432C60DEF800407546E3
:1004B0004E689C43B60300D51C432C600B4D083599
:1004C0002C684E689C43F60200D51C432C60074DF7
:1004D0000C352C684E689C43B60200D51C432C603A
:1004E000521C102AFFF444AFBDE8F88F003C0140D5
:1004F0004438024000300140000002400004024045
:1005000000080240000C02400010024000140240AB
:1005100000180240001C024000200240002402405B
:100520000AB1816170470904FBE700000148806857
:10053000704700000C0200200248816802781144D4
:10054000816070470C0200200B4810B5016841F42F
:1005500000710160016841F480610160016841F44B
:1005600080710160032000F06FF8002000F006F8B1
:1005700000F024F8002010BD003C024070B50D4D85
:1005800004464FF47A712878B1FBF0F00A49096803
:10059000B1FBF0F000F0E2FA48B9102C07D20022CB
:1005A0002146501E00F030F800206C6070BD012024
:1005B00070BD00000C020020180200200A4808B597
:1005C000016841F480410160006800F480400090BF
:1005D0000548001F016841F080510160006800F08B
:1005E0008050009008BD000044380240002809DB1C
:1005F00000F01F02012191404009800000F1E0203D
:10060000C0F8001170470000F0B40E4B1B680C4698
:10061000C3F30223C3F10705042D00D90425191DD6
:10062000072901D2002300E0DB1E012606FA05F1AE
:10063000491E214099409E40761E16403143F0BC31
:1006400001F02CB80CED00E0064900F00702086844
:100650004FF6FF03184040EA0220034A10430860A7
:10066000704700000CED00E00000FA052DE9F047AE
:100670000E46050065D0DFF81481D8F80000F7B207
:1006800000F00F00B04207D288F80070D8F80000E0
:1006900000F00F00B04254D128683D4C810712D5BC
:1006A000400703D5206840F4E05020602878000718
:1006B00003D5206840F4604020602068A96820F0DD
:1006C000F000084320602878C0072DD030496868C2
:1006D0000839012812D0022813D0032811D0096844
:1006E000890700292DDA216821F0030101432160E7
:1006F000FFF71CFF814641F2883A0EE00968890342
:10070000EFE709688901ECE7FFF710FFA0EB0901AB
:10071000514502D90320BDE8F0872068696800F0E0
:100720000C00B0EB810FEFD1D8F80010404601F07B
:100730000F01B14207D90770006800F00F00B04206
:1007400001D00120E7E72878400705D52068E9684F
:1007500020F4E050084320602878000706D5206880
:10076000296920F4604040EAC100206000F036F8BA
:100770002168084AC1F30311515CC840064908606A
:100780000020FFF7FBFE0020C5E70000003C024010
:100790000838024054170008180200200448054990
:1007A00000680968044AC1F38221515CC84070475F
:1007B0001802002008380240641700080448054960
:1007C00000680968044AC1F34231515CC84070476F
:1007D000180200200838024064170008154810B5B8
:1007E000006810F00C02144813D01449042A0FD0EA
:1007F000082A0ED10F4C241F2268236802F03F0202
:100800005B0207D52068C0F38810A0FB010106E059
:10081000084610BD2168C1F38811A1FB0001002327
:10082000FFF7E0FC2168C1F30141491C4900B0FB1E
:10083000F1F010BD083802400024F400001BB7009E
:100840002DE9F84F050076D02878DFF8F8B2BE4CD5
:10085000C00749D0DBF800105846C1F381010129D7
:1008600008D00068C0F3810002280AD1201D00686A
:10087000400206D52068800336D568680028E2D09B
:1008800032E06868B0F5803F10D0B0F5A02F206846
:1008900010D020F480302060206820F48020206078
:1008A0006868A0B1FFF742FE06460CE0206840F4FD
:1008B0008030F4E740F480202060F7E7FFF736FE51
:1008C000801B642873D820688003F7D50CE0FFF7FD
:1008D0002DFE064605E000BFFFF728FE801B6428BA
:1008E000F0D820688003F7D42878DFF8608280078A
:1008F0004FF000093ED5DBF80010584611F00C0F00
:1009000009D00068C0F3810002280BD18D48001F78
:100910000068400206D42068800715D5E8680128E1
:1009200009D111E0E868B8B10120C8F80000FFF76C
:10093000FDFD064605E002E1FFF7F8FD801B0228F9
:10094000C0D820688007F7D52068296920F0F80012
:1009500040EAC10020600DE0C8F80090FFF7E6FD16
:10096000064604E0FFF7E2FD801B02281FD820683E
:100970008007F7D42878000722D5724E7448696939
:100980006C3671B101210160FFF7D0FD074604E02C
:10099000FFF7CCFDC01B022809D830688007F7D5C7
:1009A0000EE0C0F80090FFF7C1FD074605E083E0C8
:1009B000FFF7BCFDC01B02287ED830688007F7D443
:1009C0002878400768D5DFF87CA100270AF1380AAB
:1009D000DAF80000C0000BD4DAF8001041F08051C2
:1009E000CAF80010DAF80000012700F080500090EB
:1009F000584E3068C00510D4306840F480703060C4
:100A0000FFF794FD009005E0FFF790FD0099401A74
:100A1000022851D83068C005F6D54A4EA868683615
:100A200001280FD00528306810D020F00100306078
:100A3000306820F004003060A868B8B1FFF776FD98
:100A400000900FE0306840F00100F4E740F004004F
:100A50003060F7E7FFF76AFD0099411A41F28830EC
:100A6000814264D830688007F4D50EE0FFF75EFD60
:100A7000009007E0FFF75AFD0099411A41F28830D3
:100A8000814254D830688007F4D42FB1DAF80010CE
:100A900021F08051CAF80010A869C0B3DBF800103B
:100AA000C1F3810102294AD00228484607D0C8F87C
:100AB0006000FFF73BFD00E039E005463AE04746BD
:100AC000C8F86000FFF732FD064604E0FFF72EFD90
:100AD000801B02282BD820688001F7D4D5E90701B4
:100AE0000843A96A1C4A490802EB01416A6A41EAC3
:100AF0008211084395F82C1040EA01611148001F4B
:100B0000016001203866FFF711FD054605E014E09D
:100B1000FFF70CFD401B022809D820688001F7D59B
:100B20000BE000BFFFF702FD401B022802D90320A3
:100B3000BDE8F88F20688001F4D40020F8E7012098
:100B4000F6E7000008380240003802400000474243
:100B5000800E4742007000400000FFFF10B5401EAD
:100B6000B0F1807F01D3012010BD4FF0E02460611F
:100B70000F21601700F092FD0020A0610720206186
:100B8000002010BD70B590F83C20012A19D0012436
:100B900000F83C4F0222427050F83C3C5A689D6875
:100BA00022F070060A684968324325F0800529431F
:100BB0005A6050F83C2C9160447000210170084646
:100BC00070BD022070BD10B5040003D094F83D0044
:100BD00010B107E0012010BD002084F83C00204641
:100BE00000F00CF8022084F83D00211D206800F080
:100BF000CFFA012084F83D00002010BD08B5006840
:100C00000649884208D10648016841F02001016088
:100C1000006800F02000009008BD000000140040B3
:100C200040380240022180F83D1001688A6802F0D5
:100C30000702062A03D00A6842F001020A60012175
:100C400080F83D10002070477047000070B50268C2
:100C500004461068D168536910F00F0F50D003F0AC
:100C6000010501F4907635435DD0C20705D0CA0571
:100C700003D5E26B42F00102E263420705D5DA07D1
:100C800003D0E26B42F00202E263820705D5DA0785
:100C900003D0E26B42F00402E263020705D5DA07F3
:100CA00003D0E26B42F00802E263E26B002A33D029
:100CB000800604D5880602D5204600F0E9FA2068AF
:100CC0004069E16BC0F38010090700D428B32046C7
:100CD00000F0D0FA2068416949061AD5416921F02F
:100CE00040014161606BA0B11B490165606BFFF77A
:100CF0000DFB002810D0606B016DBDE87040084707
:100D0000830610D58B060ED52046BDE8704000F056
:100D1000BFBA2046FFF798FF70BD2046FFF794FF4B
:100D20000020E06370BD030606D50B0604D52046FF
:100D3000BDE8704000F04EBC4006F3D54806F1D542
:100D4000D168204621F04001D160202184F839107B
:100D500000F033F970BD00006512000870B50400A2
:100D600004D094F83900002510B106E0012070BDD0
:100D700084F83850204600F023F8242084F8390005
:100D80002068C16821F40051C160204600F0CCFA0F
:100D90002068016921F4904101612068416921F0D6
:100DA0002A0141612068C16841F40051C160E563D6
:100DB000202084F8390084F83A00002070BD00003B
:100DC00010B586B0044614216846FFF743FA174968
:100DD0002068884227D11648016841F4002101604B
:100DE000006800F40020059011481038016841F0B7
:100DF000010101600068022100F00100059003205C
:100E0000CDE900010121CDE90210082004906946D6
:100E10000848FFF79FFA002203213420FFF7F4FB74
:100E20003420FFF7E3FB06B010BD0000004C00408B
:100E3000403802400000024090F83A30202B22D186
:100E4000F9B1F2B190F83830012B1CD08162828563
:100E5000C2850021C163222280F83A2080F8381030
:100E60000168CA6842F48072CA6001684A6942F047
:100E700001024A610068C16841F02001C1600020A0
:100E800070470120704702207047000070B51A4E6D
:100E9000002506F10B043078FF280ED335700020B2
:100EA0002554401CFF28FBDD13494FF6FF73082231
:100EB000C91C124800F024F816E0B1782154401CF7
:100EC000C2B2A018327010F8010C21280CD10A49C6
:100ED0004FF0FF330B31094800F012F80020255481
:100EE000401CFF28FBDD3570BDE87040024901223F
:100EF000891C0248FFF7A0BF000000205C02002010
:100F00002DE9F843044690F839001F4616460D4671
:100F1000202850D1A5B19EB194F8380001284AD0BC
:100F2000012084F838004FF00008C4F83C802120EC
:100F300084F83900FFF7FAFAA6848146E68426E0B1
:100F40000120BDE8F883E08C401EE084A0684B4699
:100F5000B0F5805F4FF000024FF08001204600970F
:100F600003D000F068FBE8B90DE000F064FBC8B9FD
:100F700028882168C0F308004860206908B16D1C0A
:100F800005E0AD1C03E0216815F8010B4860E08C1A
:100F90000028D8D14B46002240212046009700F07F
:100FA0004AFB08B10320CCE7202084F8390084F8FC
:100FB00038800020C5E70220C3E77047FEE7000045
:100FC00070B586B014216846FFF744F9164800242E
:100FD000016841F080010160016801F08001059124
:100FE000016841F001010160016801F00101059112
:100FF000016841F04001016000680C4E00F04000C3
:101000004FF4FF750590002229463046FFF788FA15
:1010100001200095CDE90104694630460394FFF7AD
:1010200099F906B070BD0000303802400018024047
:101030001CB500240E4800940C4901940160012164
:10104000C0E901144FF6FF718461C160FFF7BBFD79
:1010500008B1FFF75AF90094694605480194FFF773
:1010600091FD002801D0FFF750F91CBD001400408D
:101070001C0200200C4810B50A4901604FF4E13110
:101080004160002181600C22C160C0E904128161CD
:10109000C161FFF763FE002803D0BDE81040FFF7F1
:1010A00034B910BD004C00405C020020FEE77047E0
:1010B00070477047FFF740BA30B593B030216846AB
:1010C000FFF7C8F814210CA8FFF7C4F81948002549
:1010D000016841F080510160006800F0805011907B
:1010E0001548016821F4404141F4804101600068E5
:1010F000022400F44040119001200090000401906F
:101100008001CDE906400C200890A020CDE909041B
:1011100004200B906846FFF793FB0CA90F2081E891
:101120003100E0020F90109002210CA8FFF79EFA08
:1011300013B030BD403802400070004010480168D4
:1011400041F4700101600F48016841F00101016044
:101150000C4A00210832116002680B4B1A400260F1
:10116000031D0A4A1A60026822F4802202600548C0
:101170000C30016002495806803908607047000051
:1011800088ED00E000380240FFFFF6FE103000243A
:10119000F0B50268254C264D264E274F274B4FF0C1
:1011A000804CA04209D0604507D0A84205D0B0428B
:1011B00003D0B84201D0984204D122F0700E4A68A0
:1011C00042EA0E02A0421BD0604519D0A84217D0B7
:1011D000B04215D0B84213D0984211D0184DA84251
:1011E0000ED0184DA8420BD0174DA84208D0174D6D
:1011F000A84205D0164DA84202D0164DA84203D1F0
:1012000022F44075CA682A434D6922F080022A43BD
:1012100002608A68C2620A688262A04201D0984273
:1012200001D10969016301214161F0BD0000014064
:101230000004004000080040000C00400004014091
:1012400000400140004401400048014000180040B7
:10125000001C0040002000400148FFF7F7BC0000E0
:101260005C02002010B5806B0021C185C184FFF7AE
:10127000EBFC10BD0168CA6822F49072CA60016874
:101280004A6922F001024A61202180F83A10704731
:1012900010B590F83A10222901D0022010BD8168C3
:1012A000B1F5805F11D00169002901681FD049683C
:1012B00001F07F03816A4A1C82620B70C18D491E56
:1012C0000904090CC18518D02BE00269816A002A43
:1012D0000268526805D0D2B20A80816A491C8162D4
:1012E000ECE7C2F308020A80816A891CF7E74A68C2
:1012F000816A4B1C83620A70E0E70168CA6822F0C9
:101300002002CA600168CA6822F48072CA6001685B
:101310004A6922F001024A61202180F83A10FFF761
:10132000B5FD002010BD00002DE9F0410446006825
:101330000169E26821F44051114301612169A0680B
:10134000E26908436169114322680843D16849F2A0
:101350000C6399430143D16020684169A26921F47B
:10136000407111434161E2696425B2F5004F97482D
:10137000974922684FF032083FD08A4201D082421A
:101380007CD1FFF71BFA00EBC00101EB0010616894
:101390008900B0FBF1F6FFF711FA00EBC00101EB99
:1013A000001061688900B0FBF1F0B0FBF5F06FF060
:1013B0001801484306EB800108EB0110B0FBF5F083
:1013C00000F0F006FFF7FAF900EBC00101EB0010A6
:1013D00061688900B0FBF1F0B0FBF5F006EB001698
:1013E000FFF7ECF900EBC00101EB00106168890028
:1013F000B0FBF1F7FFF7E2F9D2E08A4201D0824276
:101400003DD1FFF7DBF900EBC00101EB0010616893
:101410004900B0FBF1F0B0FBF5F00601FFF7CEF9A3
:1014200000EBC00101EB001061684900B0FBF1F76F
:10143000FFF7C4F900EBC00101EB0010616849003F
:10144000B0FBF1F0B0FBF5F06FF01801484307EB8B
:10145000800108EBC100B0FBF5F000F0F80006EBEE
:101460004006FFF7ABF900EBC00101EB001061682B
:101470004900B0FBF1F7FFF7A1F93CE055E0FFF7B9
:101480008DF900EBC00101EB001061684900B0FB71
:10149000F1F0B0FBF5F00601FFF780F900EBC001B9
:1014A00001EB001061684900B0FBF1F7FFF776F936
:1014B00000EBC00101EB001061684900B0FBF1F0E6
:1014C000B0FBF5F06FF01801484307EB800108EB23
:1014D000C100B0FBF5F000F0F80006EB4006FFF7A6
:1014E0005DF900EBC00101EB001061684900B0FB41
:1014F000F1F7FFF753F900EBC00101EB0010616851
:101500004900B0FBF1F0B0FBF5F06FF01801484373
:1015100007EB800108EBC100B0FBF5F000F007001D
:10152000216830448860BDE8F081FFF737F900EBAF
:10153000C00101EB001061688900B0FBF1F6FFF714
:101540002DF900EBC00101EB001061688900B0FBD0
:10155000F1F0B0FBF5F06FF01801484306EB8001A5
:1015600008EB0110B0FBF5F000F0F006FFF716F9FC
:1015700000EBC00101EB001061688900B0FBF1F0E5
:10158000B0FBF5F006EB0016FFF708F900EBC00121
:1015900001EB001061688900B0FBF1F7FFF7FEF87E
:1015A00000EBC00101EB001061688900B0FBF1F0B5
:1015B000B0FBF5F06FF01801484307EB800108EB32
:1015C0000110B0FBF5F000F00F00A9E70014014096
:1015D0000010014090F83910212901D002207047F5
:1015E0008168B1F5805F016A0BD04A1C0262026813
:1015F00009785160C18C491E0904090CC1840ED0C0
:1016000017E009880268C1F30801516001690029E7
:10161000016A02D0491C0162ECE7891CFBE7016802
:10162000CA6822F08002CA600068C16841F04001C7
:10163000C160002070472DE9F041984617460E46DC
:101640000446069D1DE0681C1BD02DB1FEF76EFF01
:10165000A0EB0800A84214D92068C16821F4D07119
:10166000C1602068416921F001014161202084F8B6
:10167000390084F83A00002084F838000320BDE8DF
:10168000F0812068006836EA000004D00020B842EB
:10169000D9D00020F3E70120F9E7FEE70907090E9A
:1016A000002804DB00F1E02080F80014704700F00F
:1016B0000F0000F1E02080F8141D704702E008C818
:1016C000121F08C1002AFAD170477047002001E0BC
:1016D00001C1121F002AFBD170470000FEF734FF42
:1016E000FFF7EAFCFFF76CFCFFF7A2FCFFF7C2FC78
:1016F0001448FFF797FA012213491448FFF79CFB9F
:10170000114D0326AD1E4FF0000805F20B14FC2707
:101710004FF0FF39267067706878A070401CC0B227
:101720006870FA2801D985F80180E77026714B4668
:10173000052207490548FFF7E3FB0520FEF7F8FD02
:10174000E8E700001C020020020000205C020020EC
:101750000B01002000000000000000000102030453
:101760000607080900000000010203048C170008A6
:10177000000000201C020000CC020008B81700087E
:101780001C02002084040000CC16000841282832E6
:101790003536290D0A0CF6617364666A61736C6AEA
:1017A00067610CF7617364666A61736C6A676142B2
:0817B0000192101424F4000062
:04000005080001AD41
:00000001FF
