:020000040800F2
:1000000090040020C101000873100008E90E0008E8
:1000100071100008CD0200082B1400080000000039
:100020000000000000000000000000007710000841
:10003000CF020008000000007510000879100008C9
:10004000DB010008DB010008DB010008DB01000820
:10005000DB010008DB010008DB010008DB01000810
:10006000DB010008DB010008DB010008DB01000800
:10007000DB010008DB010008DB010008DB010008F0
:10008000DB010008DB010008DB010008DB010008E0
:10009000DB010008DB010008DB010008DB010008D0
:1000A000DB010008DB010008DB010008DB010008C0
:1000B000DB010008DB010008DB010008DB010008B0
:1000C000DB010008DB010008DB010008DB010008A0
:1000D000DB010008DB010008DB010008DB01000890
:1000E000DB010008DB010008DB010008DB01000880
:1000F000DB010008DB010008DB010008DB01000870
:10010000DB010008DB010008DB010008DB0100085F
:10011000DB010008DB010008DB010008DB0100084F
:10012000DB010008DB010008DB010008DB0100083F
:10013000DB010008DB010008DB010008DB0100082F
:10014000DB010008DB010008DB010008DB0100081F
:10015000DB010008DB010008DB010008DB0100080F
:10016000DB010008DB010008DB010008DB010008FF
:10017000DB010008DB010008DB01000800000000D3
:10018000DB010008DB010008DB010008DB010008DF
:10019000DB010008DB010008DB010008DB010008CF
:1001A0000000000000000000DB010008DFF80CD0B8
:1001B00000F07AF8004800476D1400089004002011
:1001C0000648804706480047FEE7FEE7FEE7FEE7F1
:1001D000FEE7FEE7FEE7FEE7FEE7FEE705110008A3
:1001E000AD0100082DE9F05F0546002092469B46D0
:1001F00088460646814640241BE02846414647463D
:10020000224600F041F853465A46C01A914110D395
:1002100011461846224600F028F82D1A67EB01080F
:100220004F4622460120002100F01FF817EB00097D
:100230004E41201EA4F10104DFDC484631462A4627
:100240004346BDE8F09FD2B201E000F8012B491E01
:10025000FBD270470022F6E710B513460A46044663
:100260001946FFF7F0FF204610BD202A04DB203A94
:1002700000FA02F1002070479140C2F1200320FAF9
:1002800003F3194390407047202A04DB203A21FAF7
:1002900002F00021704721FA02F3D040C2F120029F
:1002A0009140084319467047064C074D06E0E06848
:1002B00040F0010394E8070098471034AC42F6D3AD
:1002C000FFF778FF7415000894150008FEE77047E3
:1002D0007047000070B5044600F0FAF80546601C4F
:1002E00002D004480078044400F0F2F8401BA04219
:1002F000FAD370BD000000202DE9F84FDFF890B16F
:1003000000224FF001084FF0030A4FF00F090BF1E4
:10031000040E00BF0B6808FA02F42340A3426ED11A
:100320004D68022D01D0122D0ED1D50800EB850CA1
:10033000DCF820505607F70E09FA07F6B5430E69A8
:10034000BE402E43CCF82060066855000F790AFAAB
:1003500005FC07F0030726EA0C06AF4037430760A9
:100360004E68012E05D0022E03D0112E01D0122E80
:100370000ED18768CE6827EA0C07AE403E43866000
:100380004668A6430C79C4F3001494403443446097
:10039000C4688E6824EA0C04AE402643C6604C68EC
:1003A000E4006FD53B4C256845F480452560246802
:1003B00022F0030504F480440094374C2E19D6F83B
:1003C000084895072F0F09FA07F5AC43334DA842AB
:1003D00001D100252EE0324DA84201D1012529E0AE
:1003E000304DA84201D1022524E02F4DA84201D171
:1003F00003251FE02D4DA84202D104251AE041E05B
:100400002B4DA84201D1052514E02A4DA84201D167
:1004100006250FE0284DA84201D107250AE0274D07
:10042000A84201D1082505E0254DA84201D10925A2
:1004300000E00A25BD402543C6F80858DBF8004017
:100440005D464E689C43F60300D51C432C60DEF8E5
:10045000004075464E689C43B60300D51C432C6093
:100460000B4D08352C684E689C43F60200D51C43A2
:100470002C60074D0C352C684E689C43B60200D5A5
:100480001C432C60521C102AFFF444AFBDE8F88FC7
:10049000003C01404438024000300140000002406E
:1004A0000004024000080240000C0240001002401C
:1004B0000014024000180240001C024000200240CC
:1004C000002402400AB1816170470904FBE7000083
:1004D00001488068704700000000002002488168E1
:1004E0000278114481607047000000200B4810B56D
:1004F000016841F400710160016841F480610160AC
:10050000016841F480710160032000F061F800206F
:1005100000F006F800F024F8002010BD003C024076
:1005200070B50D4D04464FF47A712878B1FBF0F0A8
:100530000A490968B1FBF0F000F0ECFA48B9102C58
:1005400007D200222146501E00F022F800206C60E5
:1005500070BD012070BD0000000000200C000020D4
:100560000A4808B5016841F480410160006800F460
:10057000804000900548001F016841F080510160F3
:10058000006800F08050009008BD00004438024030
:10059000F0B40E4B1B680C46C3F30223C3F10705EE
:1005A000042D00D90425191D072901D2002300E0DC
:1005B000DB1E012606FA05F1491E214099409E40A6
:1005C000761E16403143F0BC00F030BF0CED00E069
:1005D000064900F0070208684FF6FF03184040EA9A
:1005E0000220034A10430860704700000CED00E051
:1005F0000000FA052DE9F8431748016841F08051E1
:1006000001600068154F00F08050012600903E64A4
:10061000FFF75EFF05464FF47A78114C05E000BF06
:10062000FFF756FF401B40450DD86068C003F7D563
:100630007E64FFF74DFF0546464607E0FFF748FF9B
:10064000401BB04202D90320BDE8F88360688003F4
:10065000F4D50020F8E700004038024000000E42C8
:10066000007000402DE9F0470E46050065D0DFF828
:100670001481D8F80000F7B200F00F00B04207D2A2
:1006800088F80070D8F8000000F00F00B04254D194
:1006900028683D4C810712D5400703D5206840F4F7
:1006A000E05020602878000703D5206840F46040BF
:1006B00020602068A96820F0F000084320602878B6
:1006C000C0072DD0304968680839012812D00228A7
:1006D00013D0032811D00968890700292DDA216871
:1006E00021F0030101432160FFF7F2FE814641F250
:1006F000883A0EE009688903EFE709688901ECE7A9
:10070000FFF7E6FEA0EB0901514502D90320BDE841
:10071000F0872068696800F00C00B0EB810FEFD122
:10072000D8F80010404601F00F01B14207D9077018
:10073000006800F00F00B04201D00120E7E7287800
:10074000400705D52068E96820F4E05008432060A0
:100750002878000706D52068296920F4604040EA1F
:10076000C100206000F016F82168084AC1F30311A7
:10077000515CC840064908600020FFF7D1FE002008
:10078000C5E70000003C024008380240641500083C
:100790000C000020154810B5006810F00C02144839
:1007A00013D01449042A0FD0082A0ED10F4C241F4D
:1007B0002268236802F03F025B0207D52068C0F37D
:1007C0008810A0FB010106E0084610BD2168C1F3B6
:1007D0008811A1FB00010023FFF704FD2168C1F38C
:1007E0000141491C4900B0FBF1F010BD083802403E
:1007F0000024F400001BB7002DE9F84F050076D067
:100800002878DFF8F8B2BE4CC00749D0DBF80010FA
:100810005846C1F38101012908D00068C0F3810066
:1008200002280AD1201D0068400206D520688003F6
:1008300036D568680028E2D032E06868B0F5803FBD
:1008400010D0B0F5A02F206810D020F480302060A8
:10085000206820F4802020606868A0B1FFF738FE8F
:1008600006460CE0206840F48030F4E740F4802035
:100870002060F7E7FFF72CFE801B642873D8206800
:100880008003F7D50CE0FFF723FE064605E000BF26
:10089000FFF71EFE801B6428F0D820688003F7D481
:1008A0002878DFF8608280074FF000093ED5DBF83A
:1008B0000010584611F00C0F09D00068C0F38100F9
:1008C00002280BD18D48001F0068400206D4206822
:1008D000800715D5E868012809D111E0E868B8B1AA
:1008E0000120C8F80000FFF7F3FD064605E002E12D
:1008F000FFF7EEFD801B0228C0D820688007F7D5DF
:100900002068296920F0F80040EAC10020600DE06D
:10091000C8F80090FFF7DCFD064604E0FFF7D8FDBD
:10092000801B02281FD820688007F7D4287800078A
:1009300022D5724E744869696C3671B1012101602B
:10094000FFF7C6FD074604E0FFF7C2FDC01B022803
:1009500009D830688007F7D50EE0C0F80090FFF79F
:10096000B7FD074605E083E0FFF7B2FDC01B022894
:100970007ED830688007F7D42878400768D5DFF83C
:100980007CA100270AF1380ADAF80000C0000BD475
:10099000DAF8001041F08051CAF80010DAF80000CF
:1009A000012700F080500090584E3068C00510D4E8
:1009B000306840F480703060FFF78AFD009005E0F9
:1009C000FFF786FD0099401A022851D83068C0050B
:1009D000F6D54A4EA868683601280FD00528306839
:1009E00010D020F001003060306820F0040030604A
:1009F000A868B8B1FFF76CFD00900FE0306840F0D8
:100A00000100F4E740F004003060F7E7FFF760FD15
:100A10000099411A41F28830814264D830688007D9
:100A2000F4D50EE0FFF754FD009007E0FFF750FD0E
:100A30000099411A41F28830814254D830688007C9
:100A4000F4D42FB1DAF8001021F08051CAF8001068
:100A5000A869C0B3DBF80010C1F3810102294AD0B4
:100A60000228484607D0C8F86000FFF731FD00E0D3
:100A700039E005463AE04746C8F86000FFF728FD30
:100A8000064604E0FFF724FD801B02282BD82068CF
:100A90008001F7D4D5E907010843A96A1C4A49082F
:100AA00002EB01416A6A41EA8211084395F82C1071
:100AB00040EA01611148001F016001203866FFF71C
:100AC00007FD054605E014E0FFF702FD401B022884
:100AD00009D820688001F7D50BE000BFFFF7F8FCCC
:100AE000401B022802D90320BDE8F88F206880014E
:100AF000F4D40020F8E70120F6E7000008380240AF
:100B00000038024000004742800E4742007000401B
:100B10000000FFFF10B5401EB0F1807F01D301201F
:100B200010BD4FF0E02460610F21601700F07EFCE3
:100B30000020A06107202061002010BD70B590F852
:100B40003C20012A19D0012400F83C4F02224270B7
:100B500050F83C3C5A689D6822F070060A68496863
:100B6000324325F0800529435A6050F83C2C9160AF
:100B7000447000210170084670BD022070BD10B5A0
:100B8000040003D094F83D0010B107E0012010BD2F
:100B9000002084F83C00204600F00CF8022084F885
:100BA0003D00211D206800F0D7FA012084F83D00A7
:100BB000002010BD08B50C4A01680C48914207D1CD
:100BC000016841F020010160006800F0200009E0A8
:100BD000074A914207D1016841F040010160006875
:100BE00000F04000009008BD001400404038024072
:100BF000001800400168CA6842F00102CA6000683B
:100C0000816801F00701062903D0016841F0010164
:100C100001600020704770B5044690F83C00012840
:100C200017D0012584F83C50022084F83D0020684C
:100C3000826822F0770222F47F428260086850289E
:100C400030D00DDC20284DD005DC98B310283BD1E6
:100C500048E0022070BD302844D0402834D139E02B
:100C6000602828D0702806D0B0F5805F2CD0B0F571
:100C7000005F29D10AE0CB68D1E90121206800F0AA
:100C8000DCFA2068816841F0770109E0CB68D1E99E
:100C90000121206800F0D1FA2068816841F4804188
:100CA000816011E0CA684968206800F09BFB502110
:100CB000206807E016E0CA684968206800F0A3FBD6
:100CC0006021206800F0C3FA84F83D50002084F8C9
:100CD0003C0070BDCA684968206800F083FB402171
:100CE0002068EFE7226801461046EBE710B586B0B2
:100CF000044614216846FFF7ADFA0E492068884281
:100D000015D10D480021026842F08002026000689F
:100D100000F080000590402000900220CDE9010104
:100D20000920CDE9031069460448FFF7E5FA06B04B
:100D300010BD00000018004030380240001C024086
:100D400070B5044690F83C000D4601280DD00126F0
:100D500084F83C60022084F83D0042B1042A18D097
:100D6000082A2AD00C2A4DD139E0022070BD206813
:100D700000F076FA2068816941F0080181612068FD
:100D8000816921F004018161206881692A69114328
:100D900011E0206800F094FA2068816941F4006154
:100DA00081612068816921F48061816120688169A5
:100DB0002A6941EA0221816124E0206800F0B6FA44
:100DC0002068C16941F00801C1612068C16921F052
:100DD0000401C1612068C1692A69114311E02068DA
:100DE00000F0D8FA2068C16941F40061C16120684F
:100DF000C16921F48061C1612068C1692A6941EA41
:100E00000221C16184F83D60002084F83C0070BD7F
:100E100010B5040003D094F83D0010B107E00120A4
:100E200010BD002084F83C00204600F00CF80220A1
:100E300084F83D00211D206800F08EF9012084F81F
:100E40003D00002010BD704710B504460068012227
:100E500000F0E6F90B492068884202D00A4988422E
:100E600003D1416C41F4004141642068816801F084
:100E70000701062903D0016841F00101016000204B
:100E800010BD0000000001400004014010B5044600
:100E90000068002200F0C4F9114841F211122168E3
:100EA0009310814202D00F48814209D1086A104252
:100EB00006D1086A184203D1486C20F40040486407
:100EC0002068016A114206D1016A194203D1016802
:100ED00021F001010160012084F83D00002010BDD7
:100EE0000000014000040140FEE700002DE9F04150
:100EF00086B014216846FFF7ADF927480024016841
:100F000041F080010160016801F0800105910168F4
:100F100041F002010160016801F0020105910168E0
:100F200041F040010160016801F040010591016854
:100F300041F0100101600068184F00F010004FF4FC
:100F4000FF750590002229463846FFF7BBFADFF807
:100F50005080FE14002231464046FFF7B3FA0420C9
:100F600000901048CDE9010469460F48FFF7C4F925
:100F700000950125CDE90154694638460394FFF7F1
:100F8000BBF90096CDE90154694640460394FFF74A
:100F9000B3F906B0BDE8F0813038024000180240D5
:100FA00000100240000011100004024010B58CB087
:100FB00000240794089409941C2168460A94FFF7BA
:100FC00049F91A48184901605921C0E9011440F251
:100FD0007111C0E903148461FFF7D1FD08B1FFF777
:100FE00077F94FF48050079007A91048FFF713FED8
:100FF00008B1FFF76DF90D48FFF70AFF08B1FFF7D9
:1010000067F960200090B920CDE90104002269460B
:1010100006480494FFF794FE08B1FFF759F9034816
:10102000FFF764FE0CB010BD001800405000002017
:101030001CB500240D4800940B4901940160012166
:10104000C0E901148461C160FFF799FD08B1FFF7A1
:101050003FF90094694605480194FFF76FFD0028A9
:1010600001D0FFF735F91CBD00140040100000202E
:10107000FEE7704770477047FFF730BA30B593B05E
:1010800030216846FFF7E6F814210CA8FFF7E2F8D4
:101090001A480025016841F080510160006800F0A5
:1010A000805011901648016821F4404141F480417C
:1010B00001600068022400F440401190012000907B
:1010C000000401908001CDE906400C200890B42076
:1010D000CDE9090404200B906846FFF78DFBFFF76C
:1010E00089FA0CA90F2081E83100E0020F901090DE
:1010F00002210CA8FFF7B6FA13B030BD4038024009
:10110000007000401048016841F4700101600F4810
:10111000016841F0010101600C4A002108321160B0
:1011200002680B4B1A400260031D0A4A1A600268EB
:1011300022F48022026005480C3001600249580602
:10114000803908607047000088ED00E000380240F8
:10115000FFFFF6FE10300024F0B50268254C264D46
:10116000264E274F274B4FF0804CA04209D06045B8
:1011700007D0A84205D0B04203D0B84201D098426F
:1011800004D122F0700E4A6842EA0E02A0421BD03F
:10119000604519D0A84217D0B04215D0B84213D03C
:1011A000984211D0184DA8420ED0184DA8420BD02D
:1011B000174DA84208D0174DA84205D0164DA84299
:1011C00002D0164DA84203D122F44075CA682A43C2
:1011D0004D6922F080022A4302608A68C2620A686E
:1011E0008262A04201D0984201D1096901630121C4
:1011F0004161F0BD000001400004004000080040D3
:10120000000C004000040140004001400044014047
:101210000048014000180040001C00400020004031
:1012200010B501F01F030121046A99408C43046248
:10123000016A9A401143016210BD10B5846842EA08
:10124000032224F47F440A432243826010BD826853
:1012500022F070020A4342F00701816070470000EB
:10126000F0B5026A22F001020262036A42688469F0
:10127000124E24F073050C682C4323F002058B6892
:101280002B430D4DA84201D0B04205D123F00807F1
:10129000CB683B4323F00403A84201D0B04205D100
:1012A0004D6922F4407215438A692A434260846181
:1012B000496841630362F0BD000001400004014041
:1012C000F0B5026A22F010020262026A4368846981
:1012D0000D6824F4E64444EA05248D6822F02002D7
:1012E00042EA05120F4D104EA84201D0B04206D17D
:1012F000CF6822F0800242EA071222F04002A842A0
:1013000001D0B04207D14D6923F4406343EA85031D
:101310008D6943EA850343608461496881630262A1
:10132000F0BD00000000014000040140F0B5026A79
:1013300022F480720262026A4368C46922F4007275
:1013400024F073050C68124E2C438D6842EA052286
:101350000E4DA84201D0B04206D1CF6822F40062FF
:1013600042EA072222F48062A84201D0B04207D1AB
:101370004D6923F4405343EA05138D6943EA05138D
:101380004360C4614968C1630262F0BD000001406E
:101390000004014030B5026A22F480520262046AFD
:1013A0004268C3690D6823F4E64343EA05238D6868
:1013B00024F4005444EA0534084DA84202D0084DF4
:1013C000A84204D14D6922F4804242EA851242606B
:1013D000C36149680164046230BD0000000001403F
:1013E0000004014010B5036A046A24F00104046299
:1013F000846924F0F00444EA021423F00A020A4348
:101400008461026210BD10B5036A23F01003036209
:101410008369046A23F4704343EA023224F0A00390
:1014200043EA01118261016210BDFEE70907090E5E
:10143000002804DB00F1E02080F80014704700F081
:101440000F0000F1E02080F8141D704702E008C88A
:10145000121F08C1002AFAD170477047002001E02E
:1014600001C1121F002AFBD170470000FFF73EF8B0
:10147000FFF704FEFFF73AFDFFF798FDFFF7D8FDF1
:101480003548FFF7B7FB354D4FF400644FF47A76DB
:1014900000213348FFF7D8FC002221462846FFF7F9
:1014A00011F87D20FEF716FF00212D48FFF7EEFC16
:1014B000012221462846FFF705F87D20FEF70AFFA6
:1014C00000212748FFF7C0FC002221462846FEF7EE
:1014D000F9FF7D20FEF7FEFE00212148FFF7D6FC34
:1014E000012221462846FEF7EDFF7D20FEF7F2FEA1
:1014F00000211B48FFF7A8FC002221462846FEF7E2
:10150000E1FF7D20FEF7E6FE00211548FFF7BEFC57
:10151000012221462846FEF7D5FF7D20FEF7DAFEA0
:1015200000210F48FFF790FC002221462846FEF7D5
:10153000C9FF7D20FEF7CEFE00210948FFF7A6FC7B
:10154000012221462846FEF7BDFF7D20FEF7C2FEA0
:101550003046FEF7BFFE9BE710000020001002405F
:101560005000002000000000000000000102030401
:10157000060708099415000800000020100000006C
:101580004C140008A415000810000020800400007E
:101590005C140008010000001000000000000000C2
:0415A0000024F4002F
:04000005080001AD41
:00000001FF
