:020000040800F2
:1000000010040020C1010008270B0008AD0A0008F9
:10001000250B0008CD020008F90B000800000000C5
:100020000000000000000000000000002B0B000892
:10003000CF02000800000000290B00082D0B00086B
:10004000DB010008DB010008DB010008DB01000820
:10005000DB010008DB010008DB010008DB01000810
:10006000DB010008DB010008DB010008DB01000800
:10007000DB010008DB010008DB010008DB010008F0
:10008000DB010008DB010008DB010008DB010008E0
:10009000DB010008DB010008DB010008DB010008D0
:1000A000DB010008DB010008DB010008DB010008C0
:1000B000DB010008DB010008DB010008DB010008B0
:1000C000DB010008DB010008DB010008DB010008A0
:1000D000DB010008DB010008DB010008DB01000890
:1000E000DB010008DB010008DB010008DB01000880
:1000F000DB010008DB010008DB010008DB01000870
:10010000DB010008DB010008DB010008DB0100085F
:10011000DB010008DB010008DB010008DB0100084F
:10012000DB010008DB010008DB010008DB0100083F
:10013000DB010008DB010008DB010008DB0100082F
:10014000DB010008DB010008DB010008DB0100081F
:10015000DB010008DB010008DB010008DB0100080F
:10016000DB010008DB010008DB010008DB010008FF
:10017000DB010008DB010008DB01000800000000D3
:10018000DB010008DB010008DB010008DB010008DF
:10019000DB010008DB010008DB010008DB010008CF
:1001A0000000000000000000DB010008DFF80CD0B8
:1001B00000F07AF800480047390C000810040020CD
:1001C0000648804706480047FEE7FEE7FEE7FEE7F1
:1001D000FEE7FEE7FEE7FEE7FEE7FEE7A50B000809
:1001E000AD0100082DE9F05F0546002092469B46D0
:1001F00088460646814640241BE02846414647463D
:10020000224600F041F853465A46C01A914110D395
:1002100011461846224600F028F82D1A67EB01080F
:100220004F4622460120002100F01FF817EB00097D
:100230004E41201EA4F10104DFDC484631462A4627
:100240004346BDE8F09FD2B201E000F8012B491E01
:10025000FBD270470022F6E710B513460A46044663
:100260001946FFF7F0FF204610BD202A04DB203A94
:1002700000FA02F1002070479140C2F1200320FAF9
:1002800003F3194390407047202A04DB203A21FAF7
:1002900002F00021704721FA02F3D040C2F120029F
:1002A0009140084319467047064C074D06E0E06848
:1002B00040F0010394E8070098471034AC42F6D3AD
:1002C000FFF778FF800C0008A00C0008FEE77047DD
:1002D0002DE9F84FDFF890B100224FF001084FF000
:1002E000030A4FF00F090BF1040E00BF0B6808FA68
:1002F00002F42340A3426ED14D68022D01D0122D8D
:100300000ED1D50800EB850CDCF820505607F70E0F
:1003100009FA07F6B5430E69BE402E43CCF82060BB
:10032000066855000F790AFA05FC07F0030726EA6C
:100330000C06AF40374307604E68012E05D0022EF1
:1003400003D0112E01D0122E0ED18768CE6827EA75
:100350000C07AE403E4386604668A6430C79C4F362
:100360000014944034434460C4688E6824EA0C044A
:10037000AE402643C6604C68E4006FD53B4C256810
:1003800045F480452560246822F0030504F4804488
:100390000094374C2E19D6F8084895072F0F09FA04
:1003A00007F5AC43334DA84201D100252EE0324D74
:1003B000A84201D1012529E0304DA84201D10225F2
:1003C00024E02F4DA84201D103251FE02D4DA84266
:1003D00002D104251AE041E02B4DA84201D10525A8
:1003E00014E02A4DA84201D106250FE0284DA8426D
:1003F00001D107250AE0274DA84201D1082505E0D3
:10040000254DA84201D1092500E00A25BD4025431C
:10041000C6F80858DBF800405D464E689C43F6037A
:1004200000D51C432C60DEF8004075464E689C43A6
:10043000B60300D51C432C600B4D08352C684E6864
:100440009C43F60200D51C432C60074D0C352C68EC
:100450004E689C43B60200D51C432C60521C102AE7
:10046000FFF444AFBDE8F88F003C0140443802403F
:100470000030014000000240000402400008024039
:10048000000C02400010024000140240001802401C
:10049000001C024000200240002402400069084085
:1004A00000D0012070470AB1816170470904FBE761
:1004B0000148806870470000000000200248816801
:1004C0000278114481607047000000200B4810B58D
:1004D000016841F400710160016841F480610160CC
:1004E000016841F480710160032000F061F8002090
:1004F00000F006F800F024F8002010BD003C024097
:1005000070B50D4D04464FF47A712878B1FBF0F0C8
:100510000A490968B1FBF0F000F0B4FA48B9102CB0
:1005200007D200222146501E00F022F800206C6005
:1005300070BD012070BD0000000000200C000020F4
:100540000A4808B5016841F480410160006800F480
:10055000804000900548001F016841F08051016013
:10056000006800F08050009008BD00004438024050
:10057000F0B40E4B1B680C46C3F30223C3F107050E
:10058000042D00D90425191D072901D2002300E0FC
:10059000DB1E012606FA05F1491E214099409E40C6
:1005A000761E16403143F0BC00F027BB0CED00E096
:1005B000064900F0070208684FF6FF03184040EABA
:1005C0000220034A10430860704700000CED00E071
:1005D0000000FA052DE9F0470E46050065D0DFF86A
:1005E0001481D8F80000F7B200F00F00B04207D233
:1005F00088F80070D8F8000000F00F00B04254D125
:1006000028683D4C810712D5400703D5206840F487
:10061000E05020602878000703D5206840F460404F
:1006200020602068A96820F0F00008432060287846
:10063000C0072DD0304968680839012812D0022837
:1006400013D0032811D00968890700292DDA216801
:1006500021F0030101432160FFF72AFF814641F2A7
:10066000883A0EE009688903EFE709688901ECE739
:10067000FFF71EFFA0EB0901514502D90320BDE899
:10068000F0872068696800F00C00B0EB810FEFD1B3
:10069000D8F80010404601F00F01B14207D90770A9
:1006A000006800F00F00B04201D00120E7E7287891
:1006B000400705D52068E96820F4E0500843206031
:1006C0002878000706D52068296920F4604040EAB0
:1006D000C100206000F016F82168084AC1F3031138
:1006E000515CC840064908600020FFF709FF002060
:1006F000C5E70000003C024008380240700C0008CA
:100700000C000020154810B5006810F00C021448C9
:1007100013D01449042A0FD0082A0ED10F4C241FDD
:100720002268236802F03F025B0207D52068C0F30D
:100730008810A0FB010106E0084610BD2168C1F346
:100740008811A1FB00010023FFF74CFD2168C1F3D4
:100750000141491C4900B0FBF1F010BD08380240CE
:100760000024F40040787D012DE9F84F050076D093
:100770002878DFF8F8B2BE4CC00749D0DBF800108B
:100780005846C1F38101012908D00068C0F38100F7
:1007900002280AD1201D0068400206D52068800387
:1007A00036D568680028E2D032E06868B0F5803F4E
:1007B00010D0B0F5A02F206810D020F48030206039
:1007C000206820F4802020606868A0B1FFF770FEE8
:1007D00006460CE0206840F48030F4E740F48020C6
:1007E0002060F7E7FFF764FE801B642873D8206859
:1007F0008003F7D50CE0FFF75BFE064605E000BF7F
:10080000FFF756FE801B6428F0D820688003F7D4D9
:100810002878DFF8608280074FF000093ED5DBF8CA
:100820000010584611F00C0F09D00068C0F3810089
:1008300002280BD18D48001F0068400206D42068B2
:10084000800715D5E868012809D111E0E868B8B13A
:100850000120C8F80000FFF72BFE064605E002E184
:10086000FFF726FE801B0228C0D820688007F7D536
:100870002068296920F0F80040EAC10020600DE0FE
:10088000C8F80090FFF714FE064604E0FFF710FEDC
:10089000801B02281FD820688007F7D4287800071B
:1008A00022D5724E744869696C3671B101210160BC
:1008B000FFF7FEFD074604E0FFF7FAFDC01B022824
:1008C00009D830688007F7D50EE0C0F80090FFF730
:1008D000EFFD074605E083E0FFF7EAFDC01B0228B5
:1008E0007ED830688007F7D42878400768D5DFF8CD
:1008F0007CA100270AF1380ADAF80000C0000BD406
:10090000DAF8001041F08051CAF80010DAF800005F
:10091000012700F080500090584E3068C00510D478
:10092000306840F480703060FFF7C2FD009005E051
:10093000FFF7BEFD0099401A022851D83068C00563
:10094000F6D54A4EA868683601280FD005283068C9
:1009500010D020F001003060306820F004003060DA
:10096000A868B8B1FFF7A4FD00900FE0306840F030
:100970000100F4E740F004003060F7E7FFF798FD6E
:100980000099411A41F28830814264D8306880076A
:10099000F4D50EE0FFF78CFD009007E0FFF788FD2F
:1009A0000099411A41F28830814254D8306880075A
:1009B000F4D42FB1DAF8001021F08051CAF80010F9
:1009C000A869C0B3DBF80010C1F3810102294AD045
:1009D0000228484607D0C8F86000FFF769FD00E02C
:1009E00039E005463AE04746C8F86000FFF760FD89
:1009F000064604E0FFF75CFD801B02282BD8206828
:100A00008001F7D4D5E907010843A96A1C4A4908BF
:100A100002EB01416A6A41EA8211084395F82C1001
:100A200040EA01611148001F016001203866FFF7AC
:100A30003FFD054605E014E0FFF73AFD401B0228A4
:100A400009D820688001F7D50BE000BFFFF730FD23
:100A5000401B022802D90320BDE8F88F20688001DE
:100A6000F4D40020F8E70120F6E70000083802403F
:100A70000038024000004742800E474200700040AC
:100A80000000FFFF10B5401EB0F1807F01D30120B0
:100A900010BD4FF0E02460610F21601700F0ADF849
:100AA0000020A06107202061002010BDFEE70000AB
:100AB00070B586B014216846FFF7CCFB16480024B9
:100AC000016841F002010160016801F00201059135
:100AD000016841F0400101600068104E00F04000E4
:100AE0004FF4FF750590224629463046FFF7DBFCA0
:100AF0000420CDE900040220029069460848FFF76F
:100B0000E7FB01200095CDE90104694630460394D6
:100B1000FFF7DEFB06B070BD30380240001802401F
:100B200000040240FEE7704770477047FFF7C6BCFD
:100B300010B592B030216846FFF78CFB14210CA849
:100B4000FFF788FB15480024016841F080510160DF
:100B5000006800F0805011901148016821F4404174
:100B600041F4804101600068069400F44040119017
:100B70000220009001200390102004906846FFF7A7
:100B8000F3FD0F20CDE90C040E940F9400210CA866
:100B90001094FFF71FFD12B010BD00004038024056
:100BA000007000401048016841F4700101600F4876
:100BB000016841F0010101600C4A00210832116016
:100BC00002680B4B1A400260031D0A4A1A60026851
:100BD00022F48022026005480C3001600249580668
:100BE000803908607047000088ED00E0003802405E
:100BF000FFFFF6FE10300024FEE70907090E00286B
:100C000004DB00F1E02080F80014704700F00F00D2
:100C100000F1E02080F8141D704702E008C8121FA0
:100C200008C1002AFAD170477047002001E001C1D5
:100C3000121F002AFBD17047FFF748FCFFF778FF2F
:100C4000FFF736FF084C094E4FF4FF75042120468C
:100C5000FFF724FC08B1002200E0012229463046BB
:100C6000FFF721FCF2E700000004024000180240F8
:100C7000000000000000000001020304060708094C
:100C8000A00C000800000020100000001A0C000852
:100C9000B00C000810000020000400002A0C00081E
:100CA0000100000010000000000000000024F4001B
:04000005080001AD41
:00000001FF
